:020000040000FA
:100000000C9480000C94A8000C94A8000C94A800F8
:100010000C94A8000C94A8000C94A8000C94A800C0
:100020000C94A8000C94A8000C94A8000C94A800B0
:100030000C94A8000C94A8000C94A8000C94A800A0
:100040000C94E7040C94A8000C94A8000C94A8004D
:100050000C94A8000C94A8000C94A8000C94A80080
:100060000C94A8000C94A8004E414E494E49545996
:10007000494E46CDCCCC3D0AD7233C17B7D1387773
:10008000CC2B329595E6241FB14F0A000020410089
:1000900000C84200401C4620BCBE4CCA1B0E5AAED3
:1000A000C59D7400000000240027002A0000000005
:1000B00000250028002B0000000000230026002956
:1000C0000004040404040404040202020202020301
:1000D000030303030301020408102040800102040B
:1000E000081020010204081020000000080002018E
:1000F0000000030407000000000000000000A10849
:1001000011241FBECFEFD8E0DEBFCDBF21E0A8E4B1
:10011000B1E001C01D92AC3EB207E1F711E0A0E0F2
:10012000B1E0E8EBFEE102C005900D92A834B10702
:10013000D9F710E0C0E8D0E004C02197FE010E948A
:100140003F0DCF37D107C9F70E9431050C945A0FE4
:100150000C94000096E0899FD0011124A75ABE4F4D
:1001600090967C936E935F9791E091969C93919774
:10017000E091C601F091C7019091C501992339F032
:10018000309751F0811108C0809175010994309722
:1001900019F05C968C91FACF0895CF92DF92EF928E
:1001A000FF920F931F9396E0899FF0011124E75A65
:1001B000FE4F11A2278D30A12130310551F178F089
:1001C0002230310509F451C02330310509F452C001
:1001D0001F910F91FF90EF90DF90CF9008956623CD
:1001E000B9F361E070E00E94AA002FB7F894809103
:1001F000550190915601A0915701B09158012FBF20
:100200008093B1019093B201A093B301B093B40174
:10021000DFCF9FB7F894C0905501D0905601E09081
:100220005701F09058019FBF0091B1011091B201A8
:100230002091B3013091B401C01AD10AE20AF30A45
:100240000091C3011091C40130E020E00C151D05A0
:100250002E053F0550F462E070E01F910F91FF9072
:10026000EF90DF90CF900C94AA006111B1CF63E0C2
:1002700070E0F3CF70E060E0F0CF833081F028F4DD
:10028000813099F08230A9F008958730A9F0883044
:10029000C9F08430B1F4809180008F7D03C08091DB
:1002A00080008F7780938000089584B58F7784BD18
:1002B000089584B58F7DFBCF8091B0008F778093B8
:1002C000B00008958091B0008F7DF9CFCF93DF9378
:1002D000282F30E0F901E751FF4F8491F901EB52EB
:1002E000FF4FD491F901EF53FF4FC491CC23A1F0FC
:1002F00081110E943D01EC2FF0E0EE0FFF1FE95449
:10030000FF4FA591B491EC91ED2381E090E009F4C9
:1003100080E0DF91CF91089580E090E0FACF1F93C5
:10032000CF93DF93282F30E0F901E751FF4F8491FD
:10033000F901EB52FF4FD491F901EF53FF4FC491F4
:10034000CC23A9F0162F81110E943D01EC2FF0E083
:10035000EE0FFF1FE355FF4FA591B4918FB7F894AF
:10036000EC91111108C0D095DE23DC938FBFDF9193
:10037000CF911F910895DE2BF8CFCF93DF9390E0BC
:10038000FC01EB52FF4F24918F539F4FFC0184914E
:100390008823C9F090E0880F991FFC01ED55FF4FAD
:1003A000A591B491FC01E355FF4FC591D491611122
:1003B0000DC09FB7F8948C91209582238C938881EF
:1003C000282328839FBFDF91CF910895623051F495
:1003D0009FB7F8943C91822F809583238C93E8817A
:1003E0002E2BEFCF8FB7F894EC912E2B2C938FBF41
:1003F000EACF862F642F0C94BD01862F642F0C94B6
:100400008F01862F0C946601AF92BF92CF92DF923C
:10041000EF92FF920F931F93CF93DF936C017B01B9
:100420008B01040F151FEB015E01AE18BF08C0174A
:10043000D10759F06991D601ED91FC910190F081BD
:10044000E02DC6010995892B79F7C501DF91CF9180
:100450001F910F91FF90EF90DF90CF90BF90AF90E2
:100460000895089590E080E00895FC010190002037
:10047000E9F73197AF01481B590BBC018EEC91E0B5
:100480000C9404028F929F92AF92BF920F931F938E
:10049000CF93DF93CDB7DEB7A1970FB6F894DEBF49
:1004A0000FBECDBF19A2423008F44AE08E010F5DA5
:1004B0001F4F842E912CB12CA12CA50194010E94D8
:1004C0001D0DE62FB901CA01EA30F4F4E05DD80150
:1004D000EE938D01232B242B252B79F790E080E0E0
:1004E000109719F0CD010E943502A1960FB6F8942D
:1004F000DEBF0FBECDBFDF91CF911F910F91BF9097
:10050000AF909F908F900895E95CE1CFCF93DF93F8
:100510002091CC013091CD01232B89F0FC01C091B9
:10052000C801D091C90160817181CE010E94400F44
:10053000009729F08C1B9D0BDF91CF9108958FEFD1
:100540009FEFFACFCF93DF93EC0160E08E810E94A2
:100550008F0161E08E810E948F0160E08E810E9498
:100560008F018BE891E00197F1F7DF91CF9108952A
:10057000CF92DF92EF92FF920F931F93CF93DF936F
:100580006C017C0187E0E80EF11CD0E0C0E0062F92
:1005900010E0B8010C2E02C0759567950A94E2F739
:1005A0006170F70181917F010E948F012196C43013
:1005B000D10579F7C601DF91CF911F910F91FF907F
:1005C000EF90DF90CF900C94A202CF92DF92EF9247
:1005D000FF920F931F93CF93DF93EC01F62E642FBE
:1005E0008C810E948F018D818F3F19F060E00E9405
:1005F0008F010F2D10E08F8584FF25C06E0187E0ED
:10060000C80ED11CF12CE12CB8010E2C02C075953E
:1006100067950A94E2F76170F60181916F010E947B
:100620008F01FFEFEF1AFF0A88E0E816F10461F787
:10063000CE01DF91CF911F910F91FF90EF90DF904E
:10064000CF900C94A202B80184E0759567958A95C5
:10065000E1F7CE010E94B8026F2DCE01DF91CF915C
:100660001F910F91FF90EF90DF90CF900C94B80204
:1006700040E0682F8EEC91E00C94E502CF93DF937D
:10068000823029F49091DD0198609093DD01809390
:10069000E1011092E20180E48093E30180E1809324
:1006A000E40180E58093E50161E08091D2010E9440
:1006B000BD018091D3018F3F19F061E00E94BD011F
:1006C00061E08091D4010E94BD01CEECD1E09E0199
:1006D0002E5C31408091DD0184FD0BC084E090E010
:1006E00021962817390744F461E08E810E94BD01EC
:1006F000EECF88E090E0F4CF8BE39DE00197F1F737
:1007000060E08091D2010E948F0160E08091D4016D
:100710000E948F018091D3018F3F19F060E00E9409
:100720008F018091DD0184FD39C063E08EEC91E0A2
:100730000E94B802CBE4D6E4CE010197F1F763E062
:100740008EEC91E00E94B8022197F1F763E08EEC05
:1007500091E00E94B80283E592E00197F1F762E030
:100760008EEC91E00E94B8028091DD0180620E94CF
:10077000380384E08093DE018CE00E94380381E03E
:100780000E9438038BE39FE10197F1F782E08093A9
:10079000DF0186E0DF91CF910C94380380620E94E4
:1007A00038038BE496E40197F1F78091DD018062D4
:1007B0000E94380383E592E00197F1F78091DD0113
:1007C00080620E943803D0CF41E00E94E50281E0C0
:1007D00090E00895FC0124813581232B39F421E038
:1007E000FB018081882349F020E007C0808191814E
:1007F0000E94300F21E0892BB9F7822F08950F93C3
:100800001F93CF93DF93EC0188819981009759F072
:100810002A813B812617370730F081E0DF91CF91A5
:100820001F910F9108958B016F5F7F4F0E946A0E99
:10083000009759F0998388831B830A832C813D811B
:10084000232B59F7FC011082E8CF80E0E7CFCF934C
:10085000DF93EC0188819981009711F00E94E10DEE
:10086000198218821D821C821B821A82DF91CF910D
:100870000895EF92FF920F931F93CF93DF93EC01B4
:100880007B01198218821B821A821D821C82FB0145
:1008900001900020E9F731978F01061B170BB80173
:1008A0000E94FF03811109C0CE01DF91CF911F91FA
:1008B0000F91FF90EF900C9427041D830C83B701D8
:1008C00088819981DF91CF911F910F91FF90EF90D7
:1008D0000C94390FEF92FF920F931F93CF93DF93F6
:1008E0008C017B01EB0109900020E9F72197C61BE1
:1008F000D70BBE010E94FF03811109C0C801DF911F
:10090000CF911F910F91FF90EF900C942704F80165
:10091000D583C483B70180819181DF91CF911F91ED
:100920000F91FF90EF900C94390FCF92DF92EF92DE
:10093000FF920F931F93CF93DF936C017B018A018A
:100940004617570720F48F2D7A01062F182F69E3D9
:1009500071E0C6010E943904C091CC01D091CD0153
:10096000EC16FD06F8F40C171D0708F4E801E091F9
:10097000C801F091C901EC0FFD1F10811082609138
:10098000C8017091C9016E0D7F1DC6016115710509
:1009900099F00E946A048091C8019091C901C80F22
:1009A000D91F1883C601DF91CF911F910F91FF903E
:1009B000EF90DF90CF9008950E942704ECCFFC01C8
:1009C00080819181009711F00C94E10D08951F92A0
:1009D0000F920FB60F9211242F933F938F939F93F3
:1009E000AF93BF938091550190915601A09157010B
:1009F000B09158013091540123E0230F2D3758F561
:100A00000196A11DB11D209354018093550190932F
:100A10005601A0935701B0935801809150019091D5
:100A20005101A0915201B09153010196A11DB11D38
:100A30008093500190935101A0935201B0935301C0
:100A4000BF91AF919F918F913F912F910F900FBECA
:100A50000F901F90189526E8230F0296A11DB11D37
:100A6000D2CFCF93DF93CDB7DEB7AA970FB6F89466
:100A7000DEBF0FBECDBF789484B5826084BD84B5DF
:100A8000816084BD85B5826085BD85B5816085BD89
:100A900080916E00816080936E0010928100809141
:100AA00081008260809381008091810081608093C9
:100AB0008100809180008160809380008091B100EE
:100AC00084608093B1008091B00081608093B00019
:100AD00080917A00846080937A0080917A008260AD
:100AE00080937A0080917A00816080937A0080916F
:100AF0007A00806880937A001092C10082E00E94A0
:100B00003E0380914801811109C069E371E088ECDE
:100B100091E00E94390481E08093480191E0909334
:100B2000C5018FB7F89440915501509156016091DD
:100B30005701709158018FBF8091B5019091B60116
:100B4000A091B701B091B801481B590B6A0B7B0B00
:100B50008091C1019091C201B0E0A0E08417950797
:100B6000A607B70708F020C110E08091BF01181751
:100B700060F4E091BB01F091BC01E10FF11D62E076
:100B800080810E94BD011F5FF0CF812C8091C00148
:100B9000881608F063C0E82CF12CE091BD01F091BB
:100BA000BE01EE0DFF1D61E080810E94BD01E0915C
:100BB000BD01F091BE01EE0DFF1D60E080810E943D
:100BC0008F0181E090E0A0E0B0E0082C04C0880F25
:100BD000991FAA1FBB1F0A94D2F75C016C01C09435
:100BE000D094312C8091BF01381608F5032D10E008
:100BF000E091BB01F091BC01E00FF11F80810E94E8
:100C000066010C5F1F4F000F111FF801E75AFE4FDE
:100C1000892B41F4808191818A299B29918380834A
:100C20003394E0CF808191818C219D21F7CFE09199
:100C3000BD01F091BE01EE0DFF1D61E080810E94BB
:100C40008F018091BD019091BE01E80EF91E60E018
:100C5000F70180810E94BD01839498CF29E5E22E9F
:100C600021E0F22E8701F801878D90A1892B31F4C4
:100C7000148E8FEF9FEF968F858F11A20A5F1F4F03
:100C800091E00539190779F7D12C96E0B92E8091BA
:100C9000BF01D81608F052C0C12C2D2C312C220CCB
:100CA000331CF101EF59FE4F1F012091C001C21604
:100CB00008F042C0F101608171810C2C02C0769570
:100CC00067950A94E2F7D29E900111242C0D311DF4
:100CD000E9E5F1E080E0458D568D2417350709F4EC
:100CE0002EC28F5F36968A30B1F760FF23C0E9E5E8
:100CF000F1E090E080E0448D411117C0E091B9012E
:100D0000F091BA01E20FF31F4081B89EF001B99E45
:100D1000F00D1124E75AFE4F448F368F258F10A215
:100D2000178E61E00E94CD0005C0019636968A308C
:100D3000910509F7C394B9CFD394A9CF80E0F70107
:100D400091A19111892FF6E0EF0EF11C0E151F05F0
:100D5000B1F79FB7F89440915501509156016091B9
:100D60005701709158019FBF4093B5015093B60150
:100D70006093B7017093B8018823B1F080917A0134
:100D8000882391F08091780190917901019761F425
:100D90001091750111110BC080E090E0892B09F4CE
:100DA000B0CE0E940000ADCE1092C501F5CF133435
:100DB00071F481E00E9438038BE39FE10197F1F722
:100DC00069E371E088EC91E00E946A04E5CF1D338D
:100DD00009F08BC164E371E0CE0185960E9439046D
:100DE00066E371E0CE014F960E94390468E371E03A
:100DF000CE0149960E9439046AE371E0CE01439620
:100E00000E94390469E371E0CE010D960E94390415
:100E1000CE0143960E9486028C016AE371E00F3F87
:100E2000100759F4CE0149960E9486028C010F3FAB
:100E3000100709F47CC068E371E0CE010D960E94B2
:100E40006A04A80170E060E0CE0107960E94950454
:100E50004091CC015091CD01B8016F5F7F4FCE0121
:100E600001960E9495048F819885C12CD12C760122
:100E7000009721F00E9418096B017C0189819A81F9
:100E8000812C912C5401009721F00E9418094B01EC
:100E90005C0164E371E0CE010D960E94EA038823B1
:100EA00009F45FC0A5019401C701B6010E94060CB8
:100EB0002B013C01E091E101E23008F080C0E150FB
:100EC000F0E0E253FE4F848980680E943803A3015A
:100ED0009201C301B2010E94180D882309F471C068
:100EE0008CE391E00E94350269E371E088EC91E0C7
:100EF0000E946A04CE0101960E94DF04CE0107968B
:100F00000E94DF04CE010D960E94DF04CE014396BD
:100F10000E94DF04CE0149960E94DF04CE014F9665
:100F20000E94DF04CE0185960E94DF0435CFCE01FA
:100F300085960E9486028C0164E371E0019609F0B7
:100F40007CCFCE014F960E9486027C01019609F467
:100F500078CF66E371E0CE010D960E946A048701A6
:100F600070CF66E371E0CE010D960E94EA038823FC
:100F700039F0A5019401C701B6010E94050C98CF74
:100F800068E371E0CE010D960E94EA03882339F0F0
:100F9000A5019401C701B6010E94F30A89CF6AE353
:100FA00071E0CE010D960E94EA03882309F482CFF6
:100FB000A5019401C701B6010E94720C79CFE1E04E
:100FC0007FCF73016201E894F7F82FEF3FEF4FE70F
:100FD0005FE7C701B6010E94180D81110DC02FEF08
:100FE0003FEF4FE75FE7C701B6010E948D0A181671
:100FF0001CF480E491E076CF2FEF3FEF4FE75FE402
:10100000C301B2010E94130D18161CF484E491E090
:1010100069CF2FEF3FEF4FE75FECC301B2010E94B2
:101020008D0A87FDF3CF20E030E0A901C301B201B2
:101030000E948D0A87FF0AC041E06DE28EEC91E0CC
:101040000E94E50277FA709477F870942AE037ED01
:1010500043EA5BE3C301B2010E94060C4B015C0151
:101060000E94E40C6B017C010E94920A9B01AC017E
:10107000C501B4010E94050C4B015C014AE0C701A7
:10108000B6010E94420241E06EE28EEC91E00E94C5
:10109000E50220E030E040E251E4C501B4010E94E5
:1010A000F30A4B015C010E94E40C6B01F12CE12C72
:1010B0004AE0C701B6010E944202C701B6010E9480
:1010C000920A9B01AC01C501B4010E94050C20E00D
:1010D00030E040E251E40E94F30A0E94E40C90E008
:1010E00080E04AE00E944202FFCE41E0612F8EEC98
:1010F00091E00E94E50219831A820091CC011091BF
:10110000CD010F5F1F4FB80188EC91E00E94FF03F3
:10111000882309F441CE2091C8013091C901809102
:10112000CC019091CD01BE016F5F7F4F820F931F65
:101130000E94390F1093CD010093CC012DCE617028
:10114000F1CD1092D1011092D0018CE291E09093F8
:10115000CF018093CE018EE08093D2018FEF8093F8
:10116000D3018FE08093D40180E18093D50181E1A8
:101170008093D60182E18093D70183E18093D801E7
:101180001092D9011092DA011092DB011092DC0169
:101190001092DD0181E00E943E0310925B011092EB
:1011A0005F0110925E011092600182E291E09093E3
:1011B0005A0180935901E5E7F1E01082148213820D
:1011C0001582369681E0E13BF807B9F784E091E0BB
:1011D0009093BC018093BB0180E091E09093BE01AD
:1011E0008093BD0184E08093BF018093C00188E0BB
:1011F00091E09093BA018093B9018AE090E09093D6
:10120000C2018093C10184EF91E09093C401809367
:10121000C3011092C7011092C6011092B50110923D
:10122000B6011092B7011092B8011092C50108954D
:10123000662777270C941C09B0E0A0E0E2E2F9E011
:101240000C94C50B5C017B016115710519F0DB0184
:101250008D939C9385010F5F1F4FF501D0818D2FDA
:1012600090E00E946C0A6C01892BB9F5DD32B9F56A
:101270000F5F1F4FD5011196DC91C1E05801F1E0DD
:10128000AF1AB10843E050E060E770E0C5010E948A
:10129000750A892B69F5680182E0C80ED11C45E00A
:1012A00050E06BE670E0C6010E94750A892B21F4BC
:1012B000680197E0C90ED11CE114F10419F0D701BF
:1012C000CD92DC9260E070E080E89FEFC111FFC03A
:1012D00060E070E080E89FE7FAC05801BBCFDB32E6
:1012E00029F485010E5F1F4FF501D181C0E0C6CF03
:1012F00043E050E068E670E0C5010E94750A892B62
:10130000E9F0F80110E000E020E030E0A9015F0121
:10131000B0ED8B2E8D0E89E08815C8F19C2E689457
:1013200091F88C2F8870C2FF16C0811102C00F5F28
:101330001F4F3196D501DC91C92DE9CFE114F1049D
:1013400029F00E5F1F4FF7011183008360E070E00A
:1013500080EC9FE7BCC0882311F001501109A5E083
:10136000B0E00E94B40B9B01AC01220F331F441F5D
:10137000551F280D311D411D511D283999E9390787
:10138000490799E15907A8F2C6609C2ED2CFAEEF6B
:101390008A1206C0C3FD3CC09C2E689493F8C9CF46
:1013A000DF7DD534A9F580818D3239F4C061DF014C
:1013B0001296818162E070E006C0DF018B32C1F3DA
:1013C000119661E070E080535D01A61AB70A8A3079
:1013D000F8F4E0E8CE16ECE0DE065CF4B601660F49
:1013E000771F660F771FC60ED71ECC0CDD1CC80EEC
:1013F000D11C5D01FFEFAF1ABF0A8C9180538A3078
:10140000A8F1C4FF03C0D194C194D1080C0D1D1DD7
:10141000C1FF09C0E114F10431F081E0A81AB1085C
:10142000D701AD92BC92CA01B9010E94920AC37061
:10143000C33009F490584B015C0120E030E0A90171
:101440000E948D0A882309F440C0CFE9D0E017FF3D
:1014500005C0119501951109C7E8D0E06E01B8E10A
:10146000CB1AD10880E2E82EF12C0FC0D501B1CF04
:10147000FE0125913591459154910E191F09C50121
:10148000B4010E94F30A4B015C01D501C4010E15A1
:101490001F0574F72497F594E794CC16DD06A9F799
:1014A0008A2F880F8B2F881F8F3F49F020E030E074
:1014B000A901C501B4010E948D0A811106C082E212
:1014C00090E09093E7018093E601C501B401CDB7A8
:1014D000DEB7ECE00C94E10B91110C94600B8032C0
:1014E00019F089508550C8F70895FB01DC0141507F
:1014F000504088F08D9181341CF08B350CF4805E67
:10150000659161341CF06B350CF4605E861B6111D3
:1015100071F3990B0895881BFCCF0E94CF0A08F441
:1015200081E00895E89409C097FB3EF4909580957A
:10153000709561957F4F8F4F9F4F9923A9F0F92F99
:1015400096E9BB279395F695879577956795B79517
:10155000F111F8CFFAF4BB0F11F460FF1BC06F5FFD
:101560007F4F8F4F9F4F16C0882311F096E911C00F
:10157000772321F09EE8872F762F05C0662371F030
:1015800096E8862F70E060E02AF09A95660F771F44
:10159000881FDAF7880F9695879597F90895990F20
:1015A0000008550FAA0BE0E8FEEF16161706E8072D
:1015B000F907C0F012161306E407F50798F0621B4E
:1015C000730B840B950B39F40A2661F0232B242B23
:1015D000252B21F408950A2609F4A140A6958FEF42
:1015E000811D811D08950E94060B0C947A0B0E94A8
:1015F0006C0B38F00E94730B20F0952311F00C94C3
:10160000630B0C94690B11240C94AE0B0E948B0B92
:1016100070F3959FC1F3950F50E0551F629FF00145
:10162000729FBB27F00DB11D639FAA27F00DB11D5E
:10163000AA1F649F6627B00DA11D661F829F2227E7
:10164000B00DA11D621F739FB00DA11D621F839F6E
:10165000A00D611D221F749F3327A00D611D231F44
:10166000849F600D211D822F762F6A2F11249F5792
:1016700050409AF0F1F088234AF0EE0FFF1FBB1F95
:10168000661F771F881F91505040A9F79E3F510554
:1016900080F00C94630B0C94AE0B5F3FE4F3983E28
:1016A000D4F3869577956795B795F795E7959F5FFE
:1016B000C1F7FE2B880F911D9695879597F9089590
:1016C00099278827089597F99F6780E870E060E080
:1016D00008959FEF80EC089500240A9416161706CB
:1016E00018060906089500240A9412161306140613
:1016F00005060895092E0394000C11F4882352F076
:10170000BB0F40F4BF2B11F460FF04C06F5F7F4F2D
:101710008F4F9F4F089557FD9058440F551F59F014
:101720005F3F71F04795880F97FB991F61F09F3FCE
:1017300079F087950895121613061406551FF2CFF7
:101740004695F1DF08C0161617061806991FF1CF47
:1017500086957105610508940895E894BB2766276E
:101760007727CB0197F908950E94F60BA59F900D5E
:10177000B49F900DA49F800D911D112408952F9268
:101780003F924F925F926F927F928F929F92AF9211
:10179000BF92CF92DF92EF92FF920F931F93CF935E
:1017A000DF93CDB7DEB7CA1BDB0B0FB6F894DEBFF5
:1017B0000FBECDBF09942A88398848885F846E841B
:1017C0007D848C849B84AA84B984C884DF80EE8065
:1017D000FD800C811B81AA81B981CE0FD11D0FB66E
:1017E000F894DEBF0FBECDBFED010895A29FB001FA
:1017F000B39FC001A39F700D811D1124911DB29F45
:10180000700D811D1124911D08955058BB27AA27E2
:101810000E941D0C0C947A0B0E946C0B38F00E94F5
:10182000730B20F039F49F3F19F426F40C94690BE4
:101830000EF4E095E7FB0C94630BE92F0E948B0BF1
:1018400058F3BA17620773078407950720F079F4F5
:10185000A6F50C94AD0B0EF4E0950B2EBA2FA02D2F
:101860000B01B90190010C01CA01A0011124FF274D
:10187000591B99F0593F50F4503E68F11A16F04048
:10188000A22F232F342F4427585FF3CF4695379547
:101890002795A795F0405395C9F77EF41F16BA0B0C
:1018A000620B730B840BBAF09150A1F0FF0FBB1FBA
:1018B000661F771F881FC2F70EC0BA0F621F731F03
:1018C000841F48F4879577956795B795F7959E3F60
:1018D00008F0B0CF9395880F08F09927EE0F9795F1
:1018E000879508950E94860C0C947A0B0E94730BC6
:1018F00058F00E946C0B40F029F45F3F29F00C94E3
:10190000630B51110C94AE0B0C94690B0E948B0B62
:1019100068F39923B1F3552391F3951B550BBB271E
:10192000AA2762177307840738F09F5F5F4F220F63
:10193000331F441FAA1FA9F335D00E2E3AF0E0E85A
:1019400032D091505040E695001CCAF72BD0FE2FA4
:1019500029D0660F771F881FBB1F26173707480738
:10196000AB07B0E809F0BB0B802DBF01FF279358F0
:101970005F4F3AF09E3F510578F00C94630B0C9446
:10198000AE0B5F3FE4F3983ED4F386957795679569
:10199000B795F7959F5FC9F7880F911D9695879525
:1019A00097F90895E1E0660F771F881FBB1F621744
:1019B00073078407BA0720F0621B730B840BBA0B02
:1019C000EE1F88F7E09508950E94930B88F09F57CB
:1019D00098F0B92F9927B751B0F0E1F0660F771F53
:1019E000881F991F1AF0BA95C9F714C0B13091F049
:1019F0000E94AD0BB1E008950C94AD0B672F782FCA
:101A00008827B85F39F0B93FCCF38695779567950D
:101A1000B395D9F73EF490958095709561957F4F79
:101A20008F4F9F4F08950E94CF0A08F48FEF0895BB
:101A30000E94CF0A880B990B0895A1E21A2EAA1BC7
:101A4000BB1BFD010DC0AA1FBB1FEE1FFF1FA2176E
:101A5000B307E407F50720F0A21BB30BE40BF50B6B
:101A6000661F771F881F991F1A9469F760957095F4
:101A7000809590959B01AC01BD01CF010895EE0FBB
:101A8000FF1F0590F491E02D09940F931F93CF93BE
:101A9000DF938230910510F482E090E0E091EA015A
:101AA000F091EB0130E020E0B0E0A0E0309799F455
:101AB0002115310509F44AC0281B390B24303105A2
:101AC000D8F58A819B816115710589F1FB019383AA
:101AD0008283FE0111C04081518102811381481728
:101AE0005907E0F04817590799F4109761F01296DA
:101AF0000C93129713961C933296CF01DF91CF91DE
:101B00001F910F9108950093EA011093EB01F4CF18
:101B10002115310551F04217530738F0A901DB01B7
:101B20009A01BD01DF01F801C1CFEF01F9CF909318
:101B3000EB018093EA01CDCFFE01E20FF31F819309
:101B400091932250310939832883D7CF2091E8011E
:101B50003091E901232B41F420911A0130911B01AE
:101B60003093E9012093E801209118013091190187
:101B70002115310541F42DB73EB740911C0150911C
:101B80001D01241B350BE091E801F091E901E217FA
:101B9000F307A0F42E1B3F0B2817390778F0AC0190
:101BA0004E5F5F4F2417350748F04E0F5F1F50936D
:101BB000E9014093E801819391939FCFF0E0E0E049
:101BC0009CCFCF93DF930097E9F0FC01329713820B
:101BD0001282A091EA01B091EB01ED0130E020E02A
:101BE0001097A1F420813181820F931F2091E80189
:101BF0003091E9012817390709F061C0F093E90134
:101C0000E093E801DF91CF910895EA01CE17DF0755
:101C1000E8F54A815B819E0141155105B1F7E90163
:101C2000FB83EA8349915991C40FD51FEC17FD0737
:101C300061F4808191810296840F951FE901998357
:101C40008883828193819B838A83F0E0E0E012960F
:101C50008D919C9113970097B9F52D913C91119717
:101C6000CD010296820F931F2091E8013091E90186
:101C70002817390739F6309751F51092EB01109279
:101C8000EA01B093E901A093E801BCCFD383C283FA
:101C900040815181840F951FC817D90761F44E5FA9
:101CA0005F4F88819981480F591F518340838A81F2
:101CB0009B81938382832115310509F0B0CFF09386
:101CC000EB01E093EA019ECFFD01DC01C0CF13825E
:101CD0001282D7CFB0E0A0E0E0E7FEE00C94C10BA9
:101CE0008C01009751F4CB010E94450D8C01C80175
:101CF000CDB7DEB7E0E10C94DD0BFC01E60FF71F7A
:101D00009C0122503109E217F30708F49DC0D90164
:101D1000CD91DC911197C617D70798F0C530D10542
:101D200030F3CE0104978617970708F3C61BD70B2D
:101D30002297C193D1936D937C93CF010E94E10DC3
:101D4000D6CF5B01AC1ABD0A4C018C0E9D1EA09132
:101D5000EA01B091EB01512C412CF12CE12C1097B0
:101D600031F58091E8019091E9018815990509F014
:101D70005CC04616570608F058C080911801909133
:101D80001901009741F48DB79EB740911C01509105
:101D90001D01841B950BE817F90708F055C0F09357
:101DA000E901E093E801F90171836083A0CF8D918F
:101DB0009C91119712966C90129713967C901397A2
:101DC000A815B90559F56C0142E0C40ED11CCA141E
:101DD000DB0420F1AC014A195B09DA011296159770
:101DE00080F06282738251834083D9016D937C932A
:101DF000E114F10471F0D7011396FC93EE9312975E
:101E000076CF22968C0F9D1FF90191838083F30179
:101E1000EFCFF093EB01E093EA0169CF4816590642
:101E200008F42C017D01D3019ACFCB010E94450D0E
:101E30007C01009749F0AE01B8010E94270FC8014C
:101E40000E94E10D870153CF10E000E050CFFB016D
:101E5000DC0102C001900D9241505040D8F7089526
:101E6000FB01DC018D91019080190110D9F3990BD0
:101E70000895FB01DC0101900D920020E1F7089527
:101E8000FB0151915523A9F0BF01DC014D9145178C
:101E90004111E1F759F4CD010190002049F04D9135
:101EA00040154111C9F3FB014111EFCF81E090E0F2
:101EB00001970895F894FFCF0D0C0B0A0908070647
:101EC0003738392F3435362A3132332D43303D2BD4
:101ED0000000EC01800000000000F901FD0101029A
:101EE00000000000E4030402320231022B002D0046
:101EF0002A002F006E616E00696E66006F766600C4
:107E0000112484B714BE81FFF0D085E080938100F7
:107E100082E08093C00088E18093C10086E0809377
:107E2000C20080E18093C4008EE0C9D0259A86E02C
:107E300020E33CEF91E0309385002093840096BBD3
:107E4000B09BFECF1D9AA8958150A9F7CC24DD24C4
:107E500088248394B5E0AB2EA1E19A2EF3E0BF2EE7
:107E6000A2D0813461F49FD0082FAFD0023811F036
:107E7000013811F484E001C083E08DD089C08234E0
:107E800011F484E103C0853419F485E0A6D080C0E4
:107E9000853579F488D0E82EFF2485D0082F10E0AE
:107EA000102F00270E291F29000F111F8ED06801E7
:107EB0006FC0863521F484E090D080E0DECF843638
:107EC00009F040C070D06FD0082F6DD080E0C81688
:107ED00080E7D80618F4F601B7BEE895C0E0D1E017
:107EE00062D089930C17E1F7F0E0CF16F0E7DF06D8
:107EF00018F0F601B7BEE89568D007B600FCFDCFD4
:107F0000A601A0E0B1E02C9130E011968C91119780
:107F100090E0982F8827822B932B1296FA010C0160
:107F200087BEE89511244E5F5F4FF1E0A038BF0790
:107F300051F7F601A7BEE89507B600FCFDCF97BE46
:107F4000E89526C08437B1F42ED02DD0F82E2BD052
:107F50003CD0F601EF2C8F010F5F1F4F84911BD097
:107F6000EA94F801C1F70894C11CD11CFA94CF0C13
:107F7000D11C0EC0853739F428D08EE10CD085E9AC
:107F80000AD08FE07ACF813511F488E018D01DD067
:107F900080E101D065CF982F8091C00085FFFCCF94
:107FA0009093C60008958091C00087FFFCCF809118
:107FB000C00084FD01C0A8958091C6000895E0E648
:107FC000F0E098E1908380830895EDDF803219F02E
:107FD00088E0F5DFFFCF84E1DECF1F93182FE3DFCA
:107FE0001150E9F7F2DF1F91089580E0E8DFEE27F6
:047FF000FF270994CA
:027FFE00040479
:00000001FF
